:100000000C9496010C94460F0C941F0F0C94F80E50
:100010000C94D10E0C94BE010C94BE010C94AA0E4B
:100020000C94BE010C94BE010C94CC110C943E12A5
:100030000C94BE010C94BE010C94BE010C94BE0144
:100040000C94BE010C94BE010C94BE010C94BE0134
:100050000C94BE010C94BE010C94BE010C94600E75
:100060000C94BE010C94BE010C94BE010C94BE0114
:100070000C94BE010C94BE010C94BE010C94BE0104
:100080000C94BE010C94BE010C94BE010C94BE01F4
:100090000C94BE010C94BE010C94BE010C94BE01E4
:1000A0000C94BE010C94BE010C94BE0199149C14D6
:1000B0008B148F149314BD14BD14BD14A014A41478
:1000C000A814AE14B214BD14B814341539153E1565
:1000D000481552159C159C159C155C1566157015D8
:1000E0007A1587159C158F157374645F6D7367732C
:1000F0002F54696D65006364373136366337346376
:10010000353532633331316662636332666535613A
:1001100037626332383900726F7373657269616C6C
:100120005F6D7367732F546F706963496E666F00FC
:100130003061643531663838666334343839326654
:10014000386331303638343037373634363030353E
:1001500000726F7373657269616C5F6D7367732F83
:100160004C6F670031316162643733316332353946
:10017000333332363163643631383362643132645A
:100180003632393500726F7373657269616C5F6DF9
:100190007367732F52657175657374506172616D09
:1001A000003966306539386264613635393831393D
:1001B000383664646635336166613761343065347E
:1001C000390067656F6D657472795F6D7367732F42
:1001D000566563746F723300346138343262363579
:1001E00066343133303834646332623130666234BD
:1001F000383465613766313700000000002300267F
:100200000029002C002F0067656F6D657472795F9F
:100210006D7367732F54776973740039663139359C
:10022000663838313234366664666132373938645C
:100230003164336565626361383461000000000039
:10024000240027002A002D003000000000002500B7
:1002500028002B002E0031000404040404030405CC
:100260000202020204030202020206060606060653
:100270000404020202040404080201104080401039
:1002800020408040800802040180402010020110BC
:100290008010204040200000000200090F000003F1
:1002A0000401000C0000000000000000000000003D
:1002B0000000000000080B00020202010009040017
:1002C00000010202000005240010010524010101C3
:1002D00004240206052406000107058103100040DE
:1002E00009040100020A00000007050202400000A4
:1002F000070583024000000403090412010002EF15
:100300000201404123368000010102030141726471
:1003100075696E6F204C4C430041726475696E6F55
:10032000204C656F6E6172646F00C11611241FBE90
:10033000CFEFDAE0DEBFCDBF12E0A0E0B1E0E8E150
:10034000F1E402C005900D92A233B107D9F728E07D
:10035000A2E3B2E001C01D92A830B207E1F711E0BC
:10036000C6E9D1E004C02197FE010E941A1EC539DA
:10037000D107C9F70E9442180C948A200C940000FF
:100380000895FC01EE57FB4F808108958BE192E0C8
:10039000089587E092E00895FC0187A190A5089553
:1003A000CF93DF9300D000D01F92CDB7DEB726E405
:1003B00031E03A83298323E02B837D836C83DC0146
:1003C000ED91FC910190F081E02DAE014F5F5F4F08
:1003D00067E070E009950F900F900F900F900F90CD
:1003E000DF91CF910895AF92BF92CF92DF92EF92BB
:1003F000FF920F931F93CF93DF93EC016B01643651
:1004000071053CF0FC01EE57FB4F8081882309F415
:1004100060C0DA01ED91FC910190F081E02DBE0108
:10042000655E7D4FCA0109958C017E01BCEEEB1A19
:10043000BDEFFB0A2FEFF70120832EEF31962083CB
:1004400031968083319690833196890F8095808391
:100450003196C082DE01A65EBD4FDC9245E050E0E1
:1004600020E030E0C80107964817590730F4619141
:10047000260F311D4F5F5F4FF7CF085F1F4F8C0F67
:100480009D1FFC01EC5EFD4F209520830130F2E0C2
:100490001F07A9F0680157018A819B81D5016D91E1
:1004A0005D01DC01ED91FC910190F081E02D099559
:1004B000C5018E199F098017910774F30CC06DEA6E
:1004C00071E0CE010E94D001CC24CA94DD24DA94DC
:1004D00002C0C12CD12CC601DF91CF911F910F9189
:1004E000FF90EF90DF90CF90BF90AF900895CF92A4
:1004F000DF92EF92FF92FC0110821182128213822E
:10050000DB0120E030E04D9150E0022E02C0440FAC
:10051000551F0A94E2F7052E000C660B770BC0807E
:10052000D180E280F3804C295D296E297F294083A8
:10053000518362837383285F3F4F2032310519F75F
:10054000FF90EF90DF90CF900895CF92DF92EF92DF
:10055000FF9220E030E06A017B01022E04C0F69495
:10056000E794D794C7940A94D2F7FC01C192CF01C3
:10057000285F3F4F2032310571F7FF90EF90DF90F9
:10058000CF900895CF93DF93EBE4F2E0DC01149673
:100590004D915D916D917C9117974483558366834E
:1005A000778318968D919D910D90BC91A02D80839D
:1005B0009183A283B383DF91CF9108958130E1F1DC
:1005C00048F18230A9F0833009F049C070933302BA
:1005D0006093320281EC9FE09093010180930001CF
:1005E000809169008C7F816080936900E89A35C0B2
:1005F00070933502609334028BEB9FE0909303017C
:100600008093020180916900837F846080936900F8
:10061000E99A23C0709337026093360285EB9FE01E
:100620009093050180930401809169008F7C806123
:1006300080936900EA9A11C070933902609338027E
:100640008FEA9FE0909307018093060180916900F3
:100650008F73806480936900EB9A81E0089580E055
:1006600008958BE192E0089587E092E0089588ED87
:1006700091E0089582EC91E00895CF93DF93DC013F
:1006800016968D919C911797FB0116962D913C9192
:10069000179725393105ECF4449114966D917C91AE
:1006A0001597EB01C20FD31F488316962D913C91ED
:1006B000179731961496CD91DC911597C20FD31FE1
:1006C00048812F5F3F4F17963C932E931697411109
:1006D000DCCF16962D913C9117972539310534F0D2
:1006E00022E030E019963C932E93189714962D91A2
:1006F0003C911597820F931FDF91CF9108950C9431
:100700003D0341110C943D03CB010895CB010895A5
:100710000895442341F021E030E0FC01338322833B
:100720008CE191E00895CB01089581EA91E008956C
:1007300085E891E0089584E691E0089581E591E0EF
:1007400008958F929F92AF92BF92CF92DF92EF92D5
:10075000FF920F931F93CF93DF9300D000D0CDB7BC
:10076000DEB77C018B01FB018191BF01F701828320
:10077000CE0101960E94770289819A81AB81BC816A
:100780004C015D01F5E08F0E911CA11CB11C6801AC
:1007900025E0C20ED11CA601401B510B60E070E0A9
:1007A000481559056A057B0548F4F60141916F012A
:1007B0009F0122503109F9014083EDCFF801E80F84
:1007C000F91F14820C5F1F4FF701148303830596F2
:1007D0000F900F900F900F90DF91CF911F910F917D
:1007E000FF90EF90DF90CF90BF90AF909F908F9051
:1007F000089580E391E0089587E191E008954F9294
:100800005F926F927F928F929F92AF92BF92CF92A0
:10081000DF92EF92FF920F931F93CF93DF93CDB7A9
:10082000DEB72C970FB6F894DEBF0FBECDBF7C01AC
:100830008B01DB018C9190E0F70193838283119609
:100840002C91922B938382836E5F7F4FCE0109960A
:100850000E94770289849A84AB84BC84B501A40188
:100860004A5F5F4F6F4F7F4FF8013696CF01801B75
:10087000910BA0E0B0E084179507A607B70728F40E
:100880008191DF0112978C93F1CFF801E80DF91DEA
:100890001582C8010596D70115969C938E931497DF
:1008A000B4016A5F7F4F600F711FCE0105960E94F1
:1008B0007702BAE08B0E911C4D815E816F81788545
:1008C0002401092C000C66087708440E551E661E8C
:1008D000771EF801E80DF91DCF01801B910BA0E0F8
:1008E000B0E084159505A605B70528F48191DF01D0
:1008F00012978C93F1CF6401C40ED51EB8016C0D14
:100900007D1DFB0131971082C4010197800F911F5B
:10091000F70197838683CE0101960E947702A60194
:100920004C5F5F4F49805A806B807C804A01052E66
:10093000000CAA08BB08840C951CA61CB71CF80167
:10094000E40FF51F9F01201B310BC901A0E0B0E0AF
:1009500088159905AA05BB0528F48191DF01129736
:100960008C93F0CFCA01840D951DF801E80FF91F93
:10097000DF0111971C929A0121503109020F131FB8
:10098000D70119961C930E9318972181428150E04C
:1009900060E070E0BA0155274427522B2081422B9A
:1009A0002381722BF70142875387648775870496EA
:1009B0002C960FB6F894DEBF0FBECDBFDF91CF915E
:1009C0001F910F91FF90EF90DF90CF90BF90AF906D
:1009D0009F908F907F906F905F904F90089586EFDB
:1009E00090E0089588EE90E00895FC01DB014C91C1
:1009F00050E060E070E04283538364837583119616
:100A00008C911197582B428353836483758312967C
:100A10008C911297682B428353836483758313965A
:100A20008C911397782B4283538364837583149638
:100A30004C91149750E060E070E0468357836087E4
:100A4000718715968C911597582B4683578360872D
:100A5000718716968C911697682B4683578360870B
:100A6000718717968C91782B46835783608771879F
:100A700088E090E00895DC01FB0112968C911297BA
:100A8000808313968C911397818314968C9114977D
:100A9000828315968C911597838316968C91169761
:100AA000848317968C911797858318968C91189745
:100AB000868319968C91878388E090E008958F92C1
:100AC0009F92AF92BF92CF92DF92EF92FF920F93DD
:100AD0001F93FC01DB01C380C294C69427E0C222AD
:100AE0008C2C912CA12CB12C8D929D92AD92BC920C
:100AF0001397C480D12CE12CF12C33E0CC0CDD1CFD
:100B0000EE1CFF1C3A95D1F7C828D928EA28FB2803
:100B1000CD92DD92ED92FC921397058110E020E0DA
:100B200030E04BE0000F111F221F331F4A95D1F711
:100B3000C02AD12AE22AF32ACD92DD92ED92FC92CC
:100B4000139706810F7010E020E030E053E1000FB2
:100B5000111F221F331F5A95D1F70C291D292E2949
:100B60003F290D931D932D933C9313978681829576
:100B70008F7047814F7750E060E070E094E0440F61
:100B8000551F661F771F9A95D1F7482B41155105C0
:100B900061057105A1F0405853406109710997E161
:100BA000440F551F661F771F9A95D1F7402B512B85
:100BB000622B732B4D935D936D937C9313974781B9
:100BC000407850E060E070E0742F66275527442796
:100BD0000D911D912D913C911397402B512B622B20
:100BE000732B4D935D936D937C93139788E090E006
:100BF0001F910F91FF90EF90DF90CF90BF90AF903B
:100C00009F908F900895EF92FF920F931F93CF9331
:100C1000DF938C017B01BC016E5F7F4FC7010E9497
:100C20005F05EC01B8016A5F7F4FC7018C0F9D1F04
:100C30000E945F05C80FD91FB801665F7F4FC701CB
:100C40008C0F9D1F0E945F058C0F9D1FDF91CF9120
:100C50001F910F91FF90EF900895EF92FF920F93E5
:100C60001F93CF93DF937C01EB0102960E94030652
:100C70008C01BE01680F791FC70140960E940306D0
:100C8000800F911FDF91CF911F910F91FF90EF90F7
:100C900008950F931F93CF93DF938C01EC01279658
:100CA000CE010E942D06D8019596ED91FC91969764
:100CB000CE01DF91CF911F910F9109948F929F9256
:100CC000AF92BF92CF92DF92EF92FF920F931F935A
:100CD000CF93DF93EC01CB01BA018B019C0147E17B
:100CE00035952795179507954A95D1F7112722270E
:100CF0003327011511052105310521F000581C4F3E
:100D00002F4F3F4F188219821A826B017C0145E0F8
:100D1000CC0CDD1CEE1CFF1C4A95D1F7CB826B017D
:100D20007C0153E0F594E794D794C7945A95D1F792
:100D3000CC826B017C01EBE0F594E794D794C794E7
:100D4000EA95D1F7CD8268017901F4E0CC0CDD1C85
:100D5000EE1CFF1CFA95D1F74B015C01A3E1B594A1
:100D6000A79497948794AA95D1F7482D4F70C42AD9
:100D7000CE8268017901B4E0F594E794D794C794E2
:100D8000BA95D1F720E030E0A9010E94031C87FD4D
:100D900002C0CF8203C00C2D00680F8388E090E072
:100DA000DF91CF911F910F91FF90EF90DF90CF9047
:100DB000BF90AF909F908F900895EF92FF920F9306
:100DC0001F93CF93DF937C018B01FC014281538100
:100DD00064817581C8010E945E06EC01F7014681BD
:100DE000578160857185C8018C0F9D1F0E945E062A
:100DF000C80FD91FF7014285538564857585C801E1
:100E00008C0F9D1F0E945E068C0F9D1FDF91CF915E
:100E10001F910F91FF90EF900895EF92FF920F9323
:100E20001F93CF93DF937C01EB0102960E94DD06B6
:100E30008C01BE01680F791FC70140960E94DD0634
:100E4000800F911FDF91CF911F910F91FF90EF9035
:100E500008950F931F93CF93DF93CDB7DEB72A97F3
:100E60000FB6F894DEBF0FBECDBF8C018AE391E0D0
:100E70009A8389831B821C821D821E821F82188690
:100E800019861A86D801ED91FC910190F081E02D30
:100E9000AE014F5F5F4F6AE070E0C80109950E94A4
:100EA0006416F80160877187828793872A960FB648
:100EB000F894DEBF0FBECDBFDF91CF911F910F9190
:100EC00008950C94E31E2EE231E0FC01318320836F
:100ED000848195810C94E31ECF93DF93EC010E94F3
:100EE0006307CE01DF91CF910C94E31E2F923F92C6
:100EF0004F925F926F927F928F929F92AF92BF922A
:100F0000CF92DF92EF92FF920F931F93CF93DF93D5
:100F1000CDB7DEB728970FB6F894DEBF0FBECDBFB2
:100F20008C015B01DB018C9111969C9111971296BB
:100F3000CC901297D12CE12CF12C7601DD24CC241D
:100F4000D92AC82A13968C91F82AF80182819381B4
:100F5000A481B5818C159D05AE05BF0570F4B60161
:100F6000660F771F660F771F828593850E947B1F10
:100F7000D8011B969C938E931A97F801C282D38254
:100F8000E482F582D5011796C12CD12C7601F4E0CC
:100F90008F2E912C98012A5F3F4FF8014281538197
:100FA00064817581C4010496C416D506E606F70669
:100FB00080F54C9150E060E070E0742F6627552773
:100FC0004427FD013397E0814E2BFD013297E081EC
:100FD0005E2BFD013197E0816E2BF801468357832C
:100FE000608771874C01089742855385840F951F50
:100FF000F9014081518162817381FC0140835183F9
:1010000062837383FFEFCF1ADF0AEF0AFF0A149699
:10101000C4CFF401EA0DFB1D20813181C280D12CA7
:10102000E12CF12C7601DD24CC24D32AC22A2381A1
:10103000F22A4C01F80184859585A685B7858C1523
:101040009D05AE05BF0570F4B601660F771F660FEC
:10105000771F848995890E947B1FD80155969C93A0
:101060008E935497F801C486D586E686F78620E0ED
:1010700030E0C12CD12C7601D8015096F80144857E
:10108000558566857785F501E80DF91DC40104963F
:10109000C416D506E606F70648F59180428150E071
:1010A00060E070E0BA01552744275929908049290A
:1010B000E3817E2BF801408B518B628B738B4C014B
:1010C00084899589FC01E20FF31F4D915D916D912B
:1010D0007C9113974083518362837383FFEFCF1A10
:1010E000DF0AEF0AFF0A2C5F3F4FC8CF2081318112
:1010F000C280D12CE12CF12C7601DD24CC24D32A22
:10110000C22A2381F22A4C01F80186899789A08D91
:10111000B18D8C159D05AE05BF0560F4B601660F57
:10112000771F848D958D0E947B1FD8015D969C93BF
:101130008E935C97F801C68AD78AE08EF18E412C97
:10114000512C32011801FAE12F0E311CF801868969
:101150009789A08DB18D481659066A067B0608F05E
:101160005AC0B501680D791DCE0101960E94770223
:1011700094012C5F3F4FC980DA80EB80FC80C9016D
:10118000032E000CAA0BBB0BAC01BD014C0D5D1D69
:101190006E1D7F1D4D835E836F837887F501E20F9F
:1011A000F31FAF014A195B09CA01A0E0B0E04D810D
:1011B0005E816F81788584179507A607B70728F4A5
:1011C0004191DF0112974C93ECCFC9018C0D9D1D0D
:1011D000F501E80FF91F31971082215031092A0DCE
:1011E0003B1DD8015B963C932E935A974C01C2014C
:1011F000880F991F5C96ED91FC915D97E80FF91FA0
:10120000D1018D919C9191838083BFEF4B1A5B0A32
:101210006B0A7B0A9BCFC40128960FB6F894DEBFF9
:101220000FBECDBFDF91CF911F910F91FF90EF9037
:10123000DF90CF90BF90AF909F908F907F906F90F6
:101240005F904F903F902F9008952F923F924F9232
:101250005F926F927F928F929F92AF92BF92CF9246
:10126000DF92EF92FF920F931F93CF93DF93CDB74F
:10127000DEB7E2970FB6F894DEBF0FBECDBF8C018C
:101280000E9464162B013C01980129573B4F3E8F69
:101290002D8FF90180819181A281B381A3019201F7
:1012A000281B390B4A0B5B0BDA01C901893F9A42B3
:1012B000A105B10510F035971082480148E8841A5D
:1012C0004BEF940AD4018D919C91892B79F0F80110
:1012D000E557FB4F80819181A281B38184159505EB
:1012E000A605B70518F4F401118210829801205860
:1012F0003B4F3A8F298FA80144585B4F5C8F4B8F2F
:10130000C801449698A38F8FD801AE57BB4FBCA39A
:10131000ABA3F801E057FB4FFAA7E9A7215F3F4FC6
:101320003CA72BA7180136E8231A3BEF330A4E5F80
:101330005F4F5AA349A389589B4F9EA78DA7A3012E
:1013400092012C5E3F4F4F4F5F4F2FA738AB49ABF9
:101350005AABD80112968D919C911397DC01ED91B7
:10136000FC910284F385E02D09959C0197FDF0C264
:10137000E98DFA8D80819181820F931F9183808303
:10138000D4014D915C9147305105C9F4E9A1FAA10E
:1013900080819181AC014F5F5F4F51834083F801A1
:1013A000E80FF91F248BD1018D919C911197019722
:1013B0008D939C93892B69F688E090E033C04115AA
:1013C000510541F52F3F310589F481E090E0D401CA
:1013D0008D939C932FA538A949A95AA9ADA5BEA55F
:1013E0002D933D934D935C931397B3CF0E94641656
:1013F000DC01CB0184199509A609B7090697A10557
:10140000B10508F4A6CFF801EE57FB4F10828EEF1E
:101410009FEFC6C241305105A9F42E3F310531F48A
:1014200082E090E0F4019183808393CFD4011D92F8
:101430001C92EBA1FCA1808181118BCFC8010E947D
:10144000290787CF4230510589F4D1012D933C9370
:10145000E9A1FAA11182108283E090E0D4018D937A
:101460009C93E98DFA8D3183208373CF43305105EE
:1014700069F4322F2227D1018D919C911197280F69
:10148000391F2D933C9384E090E0CCCF443051053C
:1014900089F460E071E00E94E41D8F3F910531F412
:1014A00085E090E0D4018D939C9353CFF401118299
:1014B00010824FCF4530510571F4AB8DBC8D2D930B
:1014C0003C9386E090E0F40191838083A98DBA8DEE
:1014D0002D933C933ECF4630510599F4322F22276D
:1014E000EB8DFC8D80819181280F391F3183208302
:1014F00087E090E0D4018D939C93F10180819181EC
:1015000059CF4830510509F024CFD4011D921C92C7
:1015100060E071E00E94E41D8F3F910509F019CF52
:10152000EB8DFC8D80819181009709F040C1C8014D
:101530000E94290782E291E09A8389831C821B82A0
:1015400085EE91E09E838D8398878F839A87898724
:101550001B861C861D861E866801FCEECF1AFBEFDB
:10156000DF0A78012AEBE21A2BEFF20A2EE2A22E12
:1015700021E0B22ED6012D903C902114310409F4C3
:1015800076C01A8A198AB88AAF861E8A1D8A86E9A9
:1015900090E00E944E1E9C8B8B8BFC011082EB56C0
:1015A000FF4F1082D10115968D919C9116979C83C7
:1015B0008B836D917C91119712964C91CE010F9671
:1015C0000E9481039E838D83D601ED91FC918381DE
:1015D0009481DC01ED91FC910480F581E02D099569
:1015E000BC01CE010F960E943D0398878F83D601E0
:1015F000ED91FC9183819481DC01ED91FC91068059
:10160000F781E02D0995BC01CE010F960E943D03A4
:101610009A87898720E032E040E050E02B873C87C2
:101620004D875E87D8018D919C91F601A081B18193
:1016300019966D917C911A97DC01ED91FC91AE01A8
:101640004F5F5F4FC801099589899A89813091055B
:1016500019F466EE71E004C0029729F46AEF71E0B4
:10166000C8010E94D001CE010F960E946307B2E02C
:10167000CB0ED11CCE14DF0409F07CCF9EE2C92E24
:1016800091E0D92EF701A080B180A114B10409F432
:1016900073C01A8A198AD88ACF861E8A1D8A86E95B
:1016A00090E00E944E1E9C8B8B8BDC011C92FC01F7
:1016B000EB56FF4F1082F501828193819C838B83CF
:1016C000648175814681CE010F960E9481039E83BD
:1016D0008D83D7018D919C91DC01ED91FC9104806B
:1016E000F581E02D0995BC01CE010F960E943D03C6
:1016F00098878F83F70180819181DC01ED91FC91C6
:101700000680F781E02D0995BC01CE010F960E945D
:101710003D039A87898720E032E040E050E02B8744
:101720003C874D875E87D801ED91FC91A080B18008
:10173000F70180819181DC01ED91FC910280F381C0
:10174000E02D0995AE014F5F5F4FBC01C801F50167
:10175000099589899A898130910519F466EE71E0BD
:1017600004C0029729F46AEF71E0C8010E94D00119
:10177000CE010F960E946307F2E0EF0EF11CE81411
:10178000F90409F07FCFF801EE57FB4F81E0808329
:1017900031964082518262827382AD8DBE8D4D92B0
:1017A0005D926D927C9213978FEF9FEFF9C08A3014
:1017B000910509F0A2C08AE391E09A8389831B8294
:1017C0001C821D821E821F82188619861A860E941C
:1017D0006416F801C084D184E284F3849B01AC01D7
:1017E0002C193D094E095F0969017A016F8D78A1B5
:1017F000CE0101960E94F504C701B60128EE33E040
:1018000040E050E00E94F81DCB80DC80ED80FE803F
:10181000C20ED31EE41EF51ECB82DC82ED82FE8258
:101820009B01AC0160E472E48FE090E00E94D41D63
:10183000CF80D884E984FA84DC01CB018C0D9D1D16
:10184000AE1DBF1D8F839887A987BA870E94641633
:10185000CF80D884E984FA8436E3D31A35E6E30AE4
:1018600034ECF30A28EE33E040E050E00E94F81D2B
:101870002DA33EA34FA358A79B01AC0160E472E4E3
:101880008FE090E00E94D41DA7019601261B370B24
:10189000480B590BCA01B901CB80DC80ED80FE807A
:1018A00031E0C31AD108E108F1082DA13EA14FA1F2
:1018B00058A5C21AD30AE40AF50A20E03AEC4AE92C
:1018C0005BE30E94F81DC20ED31EE41EF51ED80174
:1018D0001C96CD92DD92ED92FC921F97F801608BE1
:1018E000718B828B938B0E946416AD8DBE8D6D9330
:1018F0007D938D939C9313972CCD8630910559F44D
:101900006F8D78A189A59AA50E94760781E0EBA545
:10191000FCA580831ECD8B30910521F4ABA1BCA129
:101920001C9217CDFC01E154FE4FEE0FFF1FE00F9C
:10193000F11F80819181009709F40BCDDC01ED91BD
:10194000FC910190F081E02D6F8D78A1099501CD7A
:10195000F801EE57FB4F8081882301F17801BDE744
:10196000EB1ABBEFFB0AF70180819181A281B38161
:10197000A3019201281B390B4A0B5B0BDA01C90149
:10198000853C9940A105B10548F0C8010E9429078E
:10199000D7014D925D926D927C92139780E090E01A
:1019A000E2960FB6F894DEBF0FBECDBFDF91CF91A8
:1019B0001F910F91FF90EF90DF90CF90BF90AF906D
:1019C0009F908F907F906F905F904F903F902F905F
:1019D00008954F925F926F927F92AF92BF92CF9293
:1019E000DF92EF92FF920F931F93CF93DF93EC015F
:1019F0007B018A81FB0180838B8181838C8182833F
:101A00008D818383DB01179640E050E0BA01E4E06A
:101A1000F0E04A805B806C807D808F010C5F1F4FFF
:101A20004415550566057705C0F48A859B85E80F42
:101A3000F91F3497D080218192818381FD013397F2
:101A4000D08231962083319690838C93F8014F5F3A
:101A50005F4F6F4F7F4F1496DCCFEE0DFF1D8C85CF
:101A600080838D8581838E8582838F85838380E0CB
:101A700090E040E050E0BA014C845D846E847F8445
:101A8000F701E00FF11F0C5F1F4F44155505660568
:101A90007705B8F4AC89BD89A80FB91FCC90119611
:101AA000DC90119712963C91129713962C91C0825C
:101AB000D182328323834F5F5F4F6F4F7F4F0496F6
:101AC000DBCF8E8980838F898183888D8283898D06
:101AD0008383412C512C32018E899F89A88DB98D29
:101AE000481659066A067B0680F55201AA0CBB1CF3
:101AF000EC8DFD8DEA0DFB1DA081B181FD010190F2
:101B00000020E9F731976F01CA1ADB0AA60160E0ED
:101B100070E0C701800F911F0E94A5020C5F1F4F4C
:101B20008C8D9D8DFC01EA0DFB1D60817181A601EC
:101B3000C701800F911F0E944A200C0D1D1DFFEF51
:101B40004F1A5F0A6F0A7F0AC7CFC801DF91CF9192
:101B50001F910F91FF90EF90DF90CF90BF90AF90CB
:101B60007F906F905F904F900895EF92FF920F9348
:101B70001F93CF93DF938C017B01EC018A81FB01E2
:101B80008193AB81BC81ED0109900020E9F7219799
:101B9000CA1BDB0BAE0160E070E0CF010E94A50222
:101BA000F80163817481AE01C70105960E944A2045
:101BB000CE010596DF91CF911F910F91FF90EF908D
:101BC0000895CF92DF92EF92FF920F931F93CF93DE
:101BD000DF936C01EB01FC0182818883838189831F
:101BE000A481B581FD0101900020E9F731978F01B3
:101BF0000A1B1B0BA80160E070E0CE0102960E9458
:101C0000A502F60164817581A801CE0106960E94A5
:101C10004A20C8010696F601A681B781FD01019010
:101C20000020E9F731977F01EA1AFB0AA70160E07B
:101C300070E08C0F9D1F0E94A502065F1F4FF601EA
:101C400066817781A701CE01800F911F0E944A20F3
:101C50000E0D1F1DF601A085B185FD01019000202C
:101C6000E9F731977F01EA1AFB0AA70160E070E00B
:101C7000CE01800F911F0E94A5020C5F1F4FF6013D
:101C800060857185A701CE01800F911F0E944A20B7
:101C9000C8018E0D9F1DF60162854385348525851B
:101CA000C80FD91F688349833A832B830496DF9139
:101CB000CF911F910F91FF90EF90DF90CF900895FB
:101CC0001F920F920FB60F9211242F933F938F9371
:101CD0009F93AF93BF9380913B0290913C02A09160
:101CE0003D02B0913E0230913A0223E0230F2D379E
:101CF00020F40196A11DB11D05C026E8230F029610
:101D0000A11DB11D20933A0280933B0290933C02A7
:101D1000A0933D02B0933E0280913F029091400219
:101D2000A0914102B09142020196A11DB11D809384
:101D30003F0290934002A0934102B0934202BF91B0
:101D4000AF919F918F913F912F910F900FBE0F9068
:101D50001F9018951F920F920FB60F9211242F9378
:101D60003F934F935F936F937F938F939F93AF9323
:101D7000BF93EF93FF93E0910801F091090109955A
:101D8000FF91EF91BF91AF919F918F917F916F9153
:101D90005F914F913F912F910F900FBE0F901F9029
:101DA00018951F920F920FB60F9211242F933F9305
:101DB0004F935F936F937F938F939F93AF93BF9353
:101DC000EF93FF93E0910601F09107010995FF91D0
:101DD000EF91BF91AF919F918F917F916F915F91A3
:101DE0004F913F912F910F900FBE0F901F9018951C
:101DF0001F920F920FB60F9211242F933F934F9380
:101E00005F936F937F938F939F93AF93BF93EF9362
:101E1000FF93E0910401F09105010995FF91EF9185
:101E2000BF91AF919F918F917F916F915F914F91F2
:101E30003F912F910F900FBE0F901F9018951F92FA
:101E40000F920FB60F9211242F933F934F935F93EE
:101E50006F937F938F939F93AF93BF93EF93FF9372
:101E6000E0910201F09103010995FF91EF91BF917B
:101E7000AF919F918F917F916F915F914F913F9122
:101E80002F910F900FBE0F901F9018951F920F92D9
:101E90000FB60F9211242F933F934F935F936F933D
:101EA0007F938F939F93AF93BF93EF93FF93E091B3
:101EB0000001F09101010995FF91EF91BF91AF9160
:101EC0009F918F917F916F915F914F913F912F9152
:101ED0000F900FBE0F901F901895DC01ED91FD91B2
:101EE0008081ED91FD919081ED91FD916C916370F8
:101EF0008E2309F064609F2309F06860EAE8FFE040
:101F0000E60FF11D659565956D936D917D918D91B0
:101F10009D91099423C01AC012C016C010C01EC0E3
:101F200009C014C013C006C019C009C00DC007C045
:101F30000DC014C062507040804090400BC0615092
:101F400070408040904006C06E5F01C06F5F7F4F61
:101F50008F4F9F4F9E938E937E936E9308958091A3
:101F60003802909139020C946D0F80913602909155
:101F700037020C946D0F80913402909135020C94CD
:101F80006D0F80913202909133020C946D0F0F937C
:101F90001F93CF93DF93EC01062F142F62E0802F65
:101FA0000E94D11462E0812F0E94D114802F90E012
:101FB000FC01E85AFD4FE491F0E0EE0FFF1FE750FF
:101FC000FE4FA591B491B983A883FC01E958FD4F58
:101FD00084918C83212F30E0F901E85AFD4F9491D0
:101FE000E92FF0E0EE0FFF1FE750FE4F45915491AF
:101FF0005B834A83F901E958FD4FE491ED831F8229
:10200000188619861A86EBE3FFE13197F1F7EC9118
:10201000E82381E009F480E0FA0120819D81922388
:1020200009F082608E83BE01802F0E94DE028B87C2
:10203000BE01812F0E94DE022B8590E0820F911D50
:102040008B87DF91CF911F910F91089540914502A9
:1020500050914602209143023091440242175307A7
:10206000B4F49091E8009570E1F39091E80092FD4E
:1020700019C08093F100809145029091460201962B
:102080008F739927892B19F48EEF8093E800809144
:102090004502909146020196909346028093450234
:1020A00081E0089580E00895CF92DF92EF92FF9251
:1020B0000F931F93CF93DF931F92CDB7DEB7182FE7
:1020C000062FE42E862F880F8E5F99830E9426109C
:1020D00083E00E942610F12EC12E9981D92E8C2DDD
:1020E0008F19801798F4F601E7FE02C0849101C0B1
:1020F00080810E942610182F80E00E9426108123E4
:10210000FFEFCF1ADF0A8111EACF01C081E00F9003
:10211000DF91CF911F910F91FF90EF90DF90CF90C3
:102120000895DF92EF92FF920F931F93CF93DF9367
:10213000D82E8A017B01E40EF51EEB01CE15DF05DA
:1021400071F0D7FE03C0FE01849101C088810E9416
:10215000261021968111F2CF8FEF9FEF01C0C801A9
:10216000DF91CF911F910F91FF90EF90DF90089535
:10217000615030F02091F100FC0120830196F8CFEE
:10218000289884E6809353020895CF92DF92EF92CD
:10219000FF920F931F93CF93DF936C017A018B0112
:1021A000C0E0D0E0CE15DF0589F0D8016D918D013A
:1021B000D601ED91FC910190F081E02DC6010995C9
:1021C000892B11F47E0102C02196ECCFC701DF916B
:1021D000CF911F910F91FF90EF90DF90CF900895D6
:1021E000CF93DF931F92CDB7DEB76983DC01ED910A
:1021F000FC910280F381E02D41E050E0BE016F5F71
:102200007F4F09950F90DF91CF91089583E08093E0
:10221000E9008091F200882319F08AE38093E800B6
:102220000895FC018485958597FD0BC09FB7F894B0
:1022300082E08093E9008091F2009FBF90E00196D8
:1022400008959FB7F89482E08093E9008091F200AE
:102250009FBF90E00895089580E090E008953FB713
:10226000F89480913F0290914002A0914102B09178
:10227000420226B5A89B05C02F3F19F00196A11D6B
:10228000B11D3FBFBA2FA92F982F8827820F911D0C
:10229000A11DB11DBC01CD0142E0660F771F881F53
:1022A000991F4A95D1F708950F931F93CF93DF930A
:1022B0001F92CDB7DEB782E0898342E450E065EB40
:1022C00072E080E80E9491100E94AD16DC01129627
:1022D0000D911C9113970115110569F0D801ED912D
:1022E000FC910280F381E02DBE016F5F7F4FC8013A
:1022F000099597FF07C089810F90DF91CF911F91BA
:102300000F910895F80100851185E5CF0E949C1674
:1023100090E00895CF93DF931F92CDB7DEB7FC0115
:102320008485958597FD05C02FEF3FEF358724877E
:102330000BC0CE0101960E947216019719F4898193
:1023400090E002C08FEF9FEF0F90DF91CF91089543
:102350000F931F93CF93DF931F92CDB7DEB78C01FE
:10236000FC018485958597FF0EC0CE0101960E94E1
:102370007216019719F4298130E002C02FEF3FEF68
:10238000F80135872487F801848595850F90DF91C2
:10239000CF911F910F9108951F920F920FB60F9238
:1023A00011248F939F938091E1009091E100937F9E
:1023B0009093E10083FF0FC01092E90091E09093A9
:1023C000EB001092EC0092E39093ED001092540217
:1023D00098E09093F00082FF20C093E09093E90092
:1023E0009091F200992319F09AE39093E80090916C
:1023F0004702992339F090914702915090934702F8
:10240000992389F190915302992339F090915302C5
:10241000915090935302992341F184FF10C0809111
:10242000E2008E7E81608093E2008091E1008F7EE9
:102430008093E100809149028E7E806111C080FF0F
:1024400016C08091E2008E7E80618093E2008091D0
:10245000E1008E7E8093E100809149028E7E816052
:102460008093490204C05D9ACDCF289AD6CF9F9120
:102470008F910F900FBE0F901F9018951F920F9283
:102480000FB60F921124CF92DF92EF92FF920F932B
:102490001F932F933F934F935F936F937F938F93EC
:1024A0009F93AF93BF93EF93FF93CF93DF93CDB7FA
:1024B000DEB76C97DEBFCDBF1092E9008091E800D7
:1024C00083FFEDC168E0CE0145960E94B81082EF0F
:1024D0008093E8008D8987FF05C09091E80090FF08
:1024E000FCCF03C09EEF9093E800982F907609F000
:1024F000C6C09E892F89188D91110CC0803829F48F
:1025000080914A028093F10002C01092F100109273
:10251000F10048C1422F50E0512B913051F481110C
:1025200041C14130510509F03DC180914A028D7F82
:102530000BC0933061F4811135C14130510509F070
:1025400031C180914A02826080934A022BC195304A
:1025500041F48091E80080FFFCCF20682093E300E5
:1025600021C1963009F05FC0EB8CFC8C1092E90021
:102570001092460210924502123091F510924402D8
:10258000109243020E94541199E0BE016F5F7F4F89
:10259000DB01E92F1D92EA95E9F799831A8391E00F
:1025A0009E8390EA98879AEF99872091450230910F
:1025B0004602275F3F4F3C832B838D831092E900B7
:1025C0001092460210924502F0924402E0924302B9
:1025D00049E050E080E00E9491100E945411E2C056
:1025E000F0924402E09243020E94AD16DC01129682
:1025F000ED90FC901397E114F10409F4C0C0D701E9
:10260000ED91FC910480F581E02DBE016B5E7F4F62
:10261000C7010995009719F00CF0C4C0C7C0F701B5
:10262000E084F184E8CF973009F4C0C0983021F4F9
:1026300081E08093F100B6C0993009F0B3C0837097
:1026400009F0B4C0EFE4F1E081E021E036E39081ED
:10265000992361F08093E9002093EB00919190938E
:10266000EC003093ED008F5F873089F78EE7809321
:10267000EA001092EA008F898093540293C08B8DF8
:102680009C8D1092E90010924602109245029093A0
:10269000440280934302898D811156C08E899D89A1
:1026A000913A59F4813209F081C047E050E06EE080
:1026B00071E080E00E94911075C0913209F076C0FF
:1026C000833289F4888D90E0982F88272F89822B78
:1026D000A0E0B0E080930A0190930B01A0930C015D
:1026E000B0930D015FC0803269F48091E80082FFF1
:1026F000FCCF67E08EE091E00E94B8108BEF8093F2
:10270000E80006C0823209F04DC08F898093150120
:1027100080914802882319F0EEEFFAE002C0E0E071
:10272000F8E080910E0190910F01A0911001B091FD
:102730001101803B9440A105B10509F07BC0809157
:10274000150180FF93C076C00E94AD16DC01129681
:102750000D911C9113970115110541F1D801ED91CF
:10276000FC910190F081E02DBE016B5E7F4FC801AE
:102770000995811117C0F80100851185ECCF113042
:1027800009F44EC0133091F48F89882309F445C0B1
:10279000823081F440E860E189E193E00E945410C6
:1027A000882321F08EEF8093E80079C081E2809346
:1027B000EB0075C0813029F440E86BE08DE093E0D8
:1027C000EDCF833099F70E94AD16DC011296ED90A3
:1027D000FC9013978E010F5F1F4F6801E114F10405
:1027E00079F0D701ED91FC910680F781E02DB801D9
:1027F000C7010995080F111DF701E084F184EECFA0
:10280000D8011C92F60101900020E9F73197BF0131
:102810006C197D0940E0C601C1CF67EF72E002C0CC
:102820006BEF72E06115710509F2FB01449150E014
:1028300080E840CF0FB6F894A89580916000886139
:1028400080936000109260000FBEA895EE3F2AE0D2
:10285000F20739F08091FE0A9091FF0A91838083FC
:10286000A1CF1092FF0A1092FE0A9CCFEE3F8AE0A1
:10287000F80731F0808191819093FF0A8093FE0ADE
:1028800087E797E7918380839BE088E10FB6F89410
:10289000A895809360000FBE9093600083CF6C96E4
:1028A0000FB6F894DEBF0FBECDBFDF91CF91FF9181
:1028B000EF91BF91AF919F918F917F916F915F91B8
:1028C0004F913F912F911F910F91FF90EF90DF90CB
:1028D000CF900F900FBE0F901F901895362F90E05D
:1028E000FC01EA56FD4F4491FC01E958FD4F24914B
:1028F000FC01E85AFD4F8491882309F451C0442318
:10290000E1F150E0FA013197EF30F105B0F5EA5A04
:10291000FF4F0C941A1E909180009F7707C09091F2
:1029200080009F7D03C090918000977F90938000EE
:1029300024C094B59F7702C094B59F7D94BD1DC0FF
:10294000909190009F7707C0909190009F7D03C069
:1029500090919000977F909390000FC09091C0004D
:102960009F7703C09091C0009F7D9093C00005C0E9
:102970009091C200977F9093C200E82FF0E0EE0F95
:10298000FF1FE65BFD4FA591B4918FB7F894EC91D2
:10299000311103C020952E2301C02E2B2C938FBF05
:1029A0000895CF93DF9390E0FC01E958FD4F249107
:1029B000FC01E85AFD4F8491882361F190E0880F73
:1029C000991FFC01E45CFD4FC591D491FC01E65BCD
:1029D000FD4FA591B491611109C09FB7F89488810A
:1029E000209582238883EC912E230BC0623061F402
:1029F0009FB7F8943881822F809583238883EC9148
:102A00002E2B2C939FBF06C08FB7F894E8812E2BF6
:102A100028838FBFDF91CF9108951F93CF93DF93CA
:102A2000182FEB0161E00E94D114209711F460E0AF
:102A300004C0CF3FD10539F461E0812FDF91CF9100
:102A40001F910C946E14E12FF0E0EA56FD4FE491D3
:102A50004E2F50E0FA013197EF30F10508F06CC0CD
:102A6000EB59FF4F0C941A1E84B5806884BDC7BD16
:102A700068C084B5806284BDC8BD63C08091800099
:102A8000806880938000D0938900C093880059C0EB
:102A900080918000806280938000D0938B00C093EF
:102AA0008A004FC080918000886080938000D0931E
:102AB0008D00C0938C0045C0809190008068809309
:102AC0009000D0939900C09398003BC080919000F3
:102AD000806280939000D0939B00C0939A0031C095
:102AE00080919000886080939000D0939D00C09367
:102AF0009C0027C08091C00080688093C0008091B6
:102B0000C0008F7B8093C000C093CF001AC080911B
:102B1000C00080628093C000C093D00012C080913A
:102B2000C20088608093C2008091C2008B7F809336
:102B3000C200C093D20005C0C038D1050CF07CCFD4
:102B400076CFDF91CF911F9108958F929F92AF9290
:102B5000BF92CF92DF92EF92FF926B017C010E94B5
:102B60002F114B015C01C114D104E104F104F1F017
:102B70000E942F11DC01CB0188199909AA09BB0910
:102B8000883E9340A105B10570F321E0C21AD10837
:102B9000E108F10888EE880E83E0981EA11CB11CA4
:102BA000C114D104E104F10419F7DDCFFF90EF90D7
:102BB000DF90CF90BF90AF909F908F9008958F92AD
:102BC0009F92AF92BF92CF92DF92EF92FF920F93BC
:102BD0001F93CF93DF935C016B017A018091150104
:102BE000882309F45BC080915402882309F456C0FD
:102BF0008091490280FF05C08091E000826080934F
:102C0000E000E70110E00AEF83E0882E9AE3992EB6
:102C10002097D9F10E949C1681110AC0015009F435
:102C20003DC061E070E080E090E00E94A515F0CF2B
:102C3000282F30E0C217D3070CF48C2F4FB7F8942D
:102C40008092E9009091E80095FF1DC0282F30E0A8
:102C5000C21BD30BF601982F915020F081918093E5
:102C6000F100FACFC20ED31E112319F09092E800A2
:102C700009C08091E80085FD06C09092E80011E04F
:102C8000209709F010E04FBFC3CF1111C3CF5D985B
:102C900084E6809347021E141F0444F081E090E014
:102CA000F5019383828380E090E001C0C701DF914A
:102CB000CF911F910F91FF90EF90DF90CF90BF9039
:102CC000AF909F908F9008952FB7F89460913B023A
:102CD00070913C0280913D0290913E022FBF089579
:102CE0000E944520FC0180915402811103C08FEFA6
:102CF0009FEF08959FB7F89482E08093E9002091B8
:102D0000F20030E01216130614F421E030E0211531
:102D1000310559F0289884E6809353028091F100A0
:102D200080838091F200882319F09FBFC901089524
:102D30008BE68093E800F9CF2FB7F89483E0809377
:102D4000E9009091E800892F807295FF04C090916E
:102D5000F20080E4891B2FBF089580916B028111DE
:102D60000DC082E08093670284E080936802109235
:102D70006A021092690281E080936B0287E692E01A
:102D80000895109276021092750288EE93E0A0E00A
:102D9000B0E08093770290937802A0937902B09389
:102DA0007A0289E591E090937402809373028FEF29
:102DB0009FEF9093800280937F0241E060E088EF74
:102DC00097E00E94C70F43E062E08CEE97E00E941C
:102DD000C70F8BE991E090933F0380933E0383E715
:102DE00092E0909341038093400380E091EEA0E055
:102DF000B0E08093420390934303A0934403B093C5
:102E000045031092C00783E891E09093CF07809329
:102E1000CE071092D0071092D1071092D2071092CD
:102E2000D3071092D9071092D8071092DA071092A0
:102E3000DB071092DC071092DD071092E307109277
:102E4000E2071092E4071092E5071092E60710924D
:102E5000E7071092EB071092EA07E2E5F7E011921C
:102E6000119287E0E438F807D1F7E4E8F7E011922F
:102E7000119287E0E63BF807D1F7E2E5F3E0119223
:102E800085E0E235F807D9F7E2E5F5E0119287E051
:102E9000E235F807D9F727E731E030932103209393
:102EA00020038BE691E090932303809322031092FA
:102EB00024031092250310922603109227031092E8
:102EC00028031092290310922A0310922B031092C8
:102ED0002C0310922D0310922E0310922F03909327
:102EE0003103809330031092320310923303109217
:102EF0003403109235031092360310923703109268
:102F000038031092390310923A0310923B03109247
:102F10003C0310923D034EE052E050931603409361
:102F200015031092170340E253E0509319034093A6
:102F3000180310921F0310921E033093F80220937F
:102F4000F7029093FA028093F9021092FB0210921A
:102F5000FC021092FD021092FE021092FF021092EB
:102F600000031092010310920203109203031092C7
:102F700004031092050310920603909308038093B4
:102F800007031092090310920A0310920B03109288
:102F90000C0310920D0310920E0310920F03109267
:102FA0001003109211031092120310921303109247
:102FB000140346E152E05093ED024093EC0210926C
:102FC000EE0247EF52E05093F0024093EF0210926E
:102FD000F6021092F50245EA51E05093C402409384
:102FE000C3023093CB022093CA029093CD02809308
:102FF000CC021092CE021092CF021092D002109208
:10300000D1021092D2021092D3021092D4021092E6
:10301000D5021092D6021092D7021092D8021092C6
:10302000D9029093DB028093DA021092DC021092B4
:10303000DD021092DE021092DF021092E002109286
:10304000E1021092E2021092E3021092E402109266
:10305000E5021092E6021092E70282EC92E0909371
:10306000E9028093E80281E090E09093EB02809384
:10307000EA0280E292E09093C8028093C702109225
:10308000C9020895789484B5826084BD84B5816056
:1030900084BD85B5826085BD85B5816085BD809123
:1030A0006E00816080936E0010928100809181009B
:1030B0008260809381008091810081608093810093
:1030C0008091800081608093800080919100826077
:1030D0008093910080919100816080939100809114
:1030E00090008160809390008091C1008460809303
:1030F000C1008091C10082608093C1008091C100B5
:1031000081608093C1008091C30081608093C3007F
:103110008091C00082608093C0008091C200816075
:103120008093C20080917A00846080937A008091BD
:103130007A00826080937A0080917A008160809327
:103140007A0080917A00806880937A00109254020D
:1031500010924A02109249028091D70081608093B8
:10316000D70080EA8093D80089B5806189BD89B590
:10317000826089BD09B400FEFDCF61E070E080E0AF
:1031800090E00E94A5158091D8008F7C806180938B
:10319000D8008091E000807F8093E0008091E10082
:1031A0008E7E8093E1008DE08093E200559A209A14
:1031B000EEEFFFE7859194918B3F9C4D19F481E0F0
:1031C0008093480261E087E00E94D11461E086E0CC
:1031D0000E94D11461E084E00E94D11461E085E096
:1031E0000E94D11460E082E00E94D11460E083E08C
:1031F0000E94D11460E080E00E94D11460E081E080
:103200000E94D1140E946416609355027093560276
:10321000809357029093580268EB7BE080E090E047
:103220000E94A515E0914003F09141038FEF9FEFBD
:10323000958784871092B7071092B6071092B90746
:103240001092B8071092BD071092BC071092BB07EE
:103250001092BA07A2E5B7E0FD0180E090E021916D
:103260003191232BB1F4FC01EE0FFF1FEE5AF84F02
:1032700025E133E03183208383589F4F90931B03D4
:1032800080931A038EE393E090931D0380931C03B5
:1032900004C001968931910511F780E090E02D91ED
:1032A0003D91232BB1F4FC01EE0FFF1FEE5AF84FB6
:1032B0002CEE32E03183208383589F4F9093F202AB
:1032C0008093F1028EE393E09093F4028093F302F3
:1032D00004C001968931910511F7E4E8F7E080E038
:1032E00090E021913191232BC1F4FC01EE0FFF1FDF
:1032F000EC57F84F23EC32E0318320838C599F4FF9
:103300009093C6028093C50280E0282E80E0382E7C
:10331000C1E0D0E00FEF1FEFAFC1019689319105F9
:1033200001F7F2CFF8944090FF07509000086090AA
:1033300001087090020878948091F707823008F0B5
:10334000AAC1F8948CEE97E00E946D0F8090F3076D
:103350009090F407A090F507B090F6077894F89451
:103360001092FF07109200081092010810920208B4
:103370007894F8941092F3071092F4071092F507DE
:103380001092F60778940E946416C0905502D0906F
:103390005602E0905702F0905802609355027093E5
:1033A0005602809357029093580220916502309103
:1033B0006602243031050CF470C16C197D098E0948
:1033C0009F090E94B21C6B017C01C301B2010E94E3
:1033D000B21C23EC35EF48E450E40E94671D24E062
:1033E00036E54EE85DE30E94671D20E030E046EBE5
:1033F00054E40E94081CA70196010E94081C20E0CA
:1034000030E04AE754E40E94671D60932403709300
:1034100025038093260390932703C501B4010E94DE
:10342000B21C23EC35EF48E450E40E94671D24E011
:1034300036E54EE85DE30E94671D20E030E046EB94
:1034400054E40E94081CA70196010E94081C20E079
:1034500030E04AE754E40E94671D609328037093AC
:10346000290380932A0390932B038091610290910A
:103470006202A0916302B09164028093FB02909378
:10348000FC02A093FD02B093FE0280915D02909138
:103490005E02A0915F02B09160028093FF02909360
:1034A0000003A0930103B09302038091F302909173
:1034B000F402DC01ED91FC916091F1027091F20255
:1034C0000190F081E02D47EF52E0099580911C03B7
:1034D00090911D03DC01ED91FC9160911A037091B4
:1034E0001B030190F081E02D40E253E0099520910B
:1034F0004F0230915002409151025091520260911E
:1035000061027091620280916302909164020E9454
:10351000971B4B015C016093610270936202809380
:1035200063029093640220914B0230914C024091CF
:103530004D0250914E0260915D0270915E02809149
:103540005F02909160020E94971B6B017C01609367
:103550005D0270935E0280935F029093600220E0B0
:1035600030E0A901C501B4010E94031C87FF9CC083
:1035700060E084E00E946E1410935C0200935B0292
:1035800020E030E04FE753E4C501B4010E94621D22
:1035900018160CF09BC080E090E0AFE7B3E4809396
:1035A000610290936202A0936302B093640220E0F0
:1035B00030E0A901C701B6010E94031C87FF95C036
:1035C00060E087E00E946E1410935A020093590243
:1035D00020E030E04FE753E4C701B6010E94621DCE
:1035E00018160CF094C080E090E0AFE7B3E480934D
:1035F0005D0290935E02A0935F02B09360026091BF
:103600005B0270915C02072E000C880B990B0E94E4
:10361000B21C20916102309162024091630250918C
:1036200064020E94671D0E947A1C85E00E940D15AD
:103630006091590270915A02072E000C880B990B69
:103640000E94B21C20915D0230915E0240915F02A7
:10365000509160020E94671D0E947A1C86E00E94C1
:103660000D1564E670E080E090E00E94A51521143D
:10367000310411F00E9400008EE393E00E942509BE
:1036800080910308823008F04DCEF89488EF97E0DF
:103690000E946D0F48CEF89459CEC90101969093BF
:1036A00066028093650223CF20E030E0A901C501C6
:1036B000B4010E94621D87FD63CF61E084E00E9437
:1036C0006E14D0935C02C0935B025ACF20E030E0CE
:1036D0004FE753ECC501B4010E94031C87FF67CF7D
:1036E00080E090E0AFE7B3EC5ACF20E030E0A901F2
:1036F000C701B6010E94621D87FD6ACF61E087E0C5
:103700000E946E14D0935A02C093590261CF20E0F8
:1037100030E04FE753ECC701B6010E94031C87FF5E
:103720006ECF80E090E0AFE7B3EC61CF5058BB279D
:10373000AA270E94AE1B0C94281D0E941A1D38F067
:103740000E94211D20F039F49F3F19F426F40C94B7
:10375000171D0EF4E095E7FB0C94111DE92F0E9454
:10376000391D58F3BA17620773078407950720F0CD
:1037700079F4A6F50C945B1D0EF4E0950B2EBA2F90
:10378000A02D0B01B90190010C01CA01A001112467
:10379000FF27591B99F0593F50F4503E68F11A1613
:1037A000F040A22F232F342F4427585FF3CF4695A4
:1037B00037952795A795F0405395C9F77EF41F16C6
:1037C000BA0B620B730B840BBAF09150A1F0FF0F90
:1037D000BB1F661F771F881FC2F70EC0BA0F621F7C
:1037E000731F841F48F4879577956795B795F7956C
:1037F0009E3F08F0B0CF9395880F08F09927EE0F01
:103800009795879508950E94ED1C08F481E008952E
:103810000E941C1C0C94281D0E94211D58F00E941F
:103820001A1D40F029F45F3F29F00C94111D51112D
:103830000C945C1D0C94171D0E94391D68F399238C
:10384000B1F3552391F3951B550BBB27AA2762179C
:103850007307840738F09F5F5F4F220F331F441FA9
:10386000AA1FA9F335D00E2E3AF0E0E832D09150DD
:103870005040E695001CCAF72BD0FE2F29D0660FCA
:10388000771F881FBB1F261737074807AB07B0E80D
:1038900009F0BB0B802DBF01FF2793585F4F3AF013
:1038A0009E3F510578F00C94111D0C945C1D5F3FF8
:1038B000E4F3983ED4F3869577956795B795F79599
:1038C0009F5FC9F7880F911D9695879597F9089581
:1038D000E1E0660F771F881FBB1F6217730784071D
:1038E000BA0720F0621B730B840BBA0BEE1F88F72C
:1038F000E09508950E94811C6894B1110C945C1DA0
:1039000008950E94411D88F09F5798F0B92F99277C
:10391000B751B0F0E1F0660F771F881F991F1AF0BA
:10392000BA95C9F714C0B13091F00E945B1DB1E0A7
:1039300008950C945B1D672F782F8827B85F39F0A6
:10394000B93FCCF3869577956795B395D9F73EF453
:1039500090958095709561957F4F8F4F9F4F0895FB
:10396000E89409C097FB3EF4909580957095619519
:103970007F4F8F4F9F4F9923A9F0F92F96E9BB27CF
:103980009395F695879577956795B795F111F8CF4B
:10399000FAF4BB0F11F460FF1BC06F5F7F4F8F4FB6
:1039A0009F4F16C0882311F096E911C0772321F0AC
:1039B0009EE8872F762F05C0662371F096E8862F44
:1039C00070E060E02AF09A95660F771F881FDAF79B
:1039D000880F9695879597F90895990F0008550FC8
:1039E000AA0BE0E8FEEF16161706E807F907C0F085
:1039F00012161306E407F50798F0621B730B840B8D
:103A0000950B39F40A2661F0232B242B252B21F466
:103A100008950A2609F4A140A6958FEF811D811D06
:103A2000089597F99F6780E870E060E008959FEF40
:103A300080EC089500240A94161617061806090645
:103A4000089500240A941216130614060506089514
:103A5000092E0394000C11F4882352F0BB0F40F49C
:103A6000BF2B11F460FF04C06F5F7F4F8F4F9F4FDC
:103A7000089557FD9058440F551F59F05F3F71F05E
:103A80004795880F97FB991F61F09F3F79F08795C5
:103A90000895121613061406551FF2CF4695F1DF4E
:103AA00008C0161617061806991FF1CF86957105DE
:103AB000610508940895E894BB2766277727CB0112
:103AC00097F908950E94ED1C08F48FEF08950E9465
:103AD0007A1D0C94281D0E941A1D38F00E94211D89
:103AE00020F0952311F00C94111D0C94171D112436
:103AF0000C945C1D0E94391D70F3959FC1F3950FC6
:103B000050E0551F629FF001729FBB27F00DB11D61
:103B1000639FAA27F00DB11DAA1F649F6627B00DF1
:103B2000A11D661F829F2227B00DA11D621F739FDA
:103B3000B00DA11D621F839FA00D611D221F749FE8
:103B40003327A00D611D231F849F600D211D822F2F
:103B5000762F6A2F11249F5750409AF0F1F0882356
:103B60004AF0EE0FFF1FBB1F661F771F881F915083
:103B70005040A9F79E3F510580F00C94111D0C9404
:103B80005C1D5F3FE4F3983ED4F386957795679587
:103B9000B795F795E7959F5FC1F7FE2B880F911DAD
:103BA0009695879597F90895DB018F939F930E94CF
:103BB000201EBF91AF91A29F800D911DA39F900DDC
:103BC000B29F900D1124089597FB072E16F40094D0
:103BD00007D077FD09D00E942B1E07FC05D03EF4CC
:103BE000909581959F4F0895709561957F4F0895A9
:103BF000A1E21A2EAA1BBB1BFD010DC0AA1FBB1FF1
:103C0000EE1FFF1FA217B307E407F50720F0A21B62
:103C1000B30BE40BF50B661F771F881F991F1A94CF
:103C200069F760957095809590959B01AC01BD01F9
:103C3000CF010895EE0FFF1F0590F491E02D099438
:103C40000E943F1EA59F900DB49F900DA49F800DD4
:103C5000911D11240895AA1BBB1B51E107C0AA1F87
:103C6000BB1FA617B70710F0A61BB70B881F991F1D
:103C70005A95A9F780959095BC01CD010895A29F12
:103C8000B001B39FC001A39F700D811D1124911D30
:103C9000B29F700D811D1124911D0895CF93DF9364
:103CA0008230910510F482E090E0E0910608F091F6
:103CB000070820E030E0C0E0D0E0309711F140810B
:103CC000518148175907C0F04817590761F482819C
:103CD0009381209719F09B838A832BC090930708C8
:103CE0008093060826C02115310519F042175307A5
:103CF00018F49A01BE01DF01EF010280F381E02D8B
:103D0000DCCF2115310509F1281B390B2430310591
:103D100090F412968D919C9113976115710521F085
:103D2000FB019383828304C0909307088093060865
:103D3000FD01329644C0FD01E20FF31F8193919380
:103D4000225031092D933C933AC0209104083091C0
:103D50000508232B41F4209118013091190130936B
:103D600005082093040820911601309117012115B0
:103D7000310541F42DB73EB740911A0150911B0116
:103D8000241B350BE0910408F0910508E217F307B6
:103D9000A0F42E1B3F0B2817390778F0AC014E5FBB
:103DA0005F4F2417350748F04E0F5F1F50930508EB
:103DB000409304088193919302C0E0E0F0E0CF01CA
:103DC000DF91CF9108950F931F93CF93DF930097C7
:103DD00009F48CC0FC01329713821282009106080C
:103DE000109107080115110581F420813181820F9E
:103DF000931F20910408309105082817390779F599
:103E0000F0930508E093040871C0D80140E050E049
:103E1000AE17BF0750F412962D913C911397AD0148
:103E20002115310509F1D901F3CF9D01DA01338361
:103E3000228360817181860F971F8217930769F42F
:103E4000EC0128813981260F371F2E5F3F4F3183C8
:103E500020838A819B8193838283452B29F4F0936D
:103E60000708E093060842C01396FC93EE9312975E
:103E7000ED01499159919E01240F351FE217F30777
:103E800071F480819181840F951F029611969C9305
:103E90008E938281938113969C938E931297E0E088
:103EA000F0E0D80112968D919C911397009719F02C
:103EB000F8018C01F6CF8D919C9198012E5F3F4FB8
:103EC000820F931F209104083091050828173907A5
:103ED00069F4309729F4109207081092060802C07E
:103EE000138212821093050800930408DF91CF918A
:103EF0001F910F910895A0E0B0E0E1E8FFE10C947C
:103F00005720EC01009721F4CB010E944E1EB8C04F
:103F1000FC01E60FF71F9C0122503109E217F3075D
:103F200008F4ACC0D9010D911C9111970617170721
:103F3000B0F00530110508F49FC0C801049786173A
:103F4000970708F499C002501109061B170B01933B
:103F500011936D937C93CF010E94E31E8DC05B0192
:103F6000A01AB10A4C01800E911EA0910608B091D2
:103F7000070840E050E0E12CF12C109709F44AC00A
:103F8000A815B905D1F56D907C901197630182E079
:103F9000C80ED11CCA14DB0480F1A3014A195B09C5
:103FA0006A0182E0C80ED11C1296BC90129713963B
:103FB000AC91B5E0CB16D10440F0B282A38351831B
:103FC0004083D9016D937C930AC00E5F1F4FC301DC
:103FD000800F911FF90191838083EB2DFA2FE1145B
:103FE000F10431F0D7011396FC93EE93129744C07D
:103FF000F0930708E09306083FC08D919C911197BC
:104000004817590708F4AC017D0112960D90BC9138
:10401000A02DB3CF809104089091050888159905CB
:10402000E1F446175707C8F48091160190911701E3
:10403000009741F48DB79EB740911A0150911B0132
:10404000841B950BE817F907C8F4F0930508E09373
:104050000408F901718360830FC0CB010E944E1EDA
:104060007C01009759F0A801BE010E944A20CE01B0
:104070000E94E31EC70104C0CE0102C080E090E0B0
:10408000CDB7DEB7EEE00C94732081E090E0F894B9
:104090000C948A20FB01DC0102C001900D9241507A
:1040A0005040D8F708952F923F924F925F926F92AF
:1040B0007F928F929F92AF92BF92CF92DF92EF92B8
:1040C000FF920F931F93CF93DF93CDB7DEB7CA1B39
:1040D000DB0B0FB6F894DEBF0FBECDBF09942A8864
:1040E000398848885F846E847D848C849B84AA840C
:1040F000B984C884DF80EE80FD800C811B81AA8199
:10410000B981CE0FD11D0FB6F894DEBF0FBECDBF63
:08411000ED010895F894FFCFC2
:10411800C001C001C001C001C001FFFFFFFF00E1F5
:1041280000000000000000000808800000000000F7
:104138000000E10DFF03FC03F90300000000810308
:1041480063076C077F03000000003B05F504F204D9
:10415800EF0400000000B50DA1039E039B0300C1FE
:10416800808100000000000000F010DF15861106B5
:104178001111118A11A81100000000DD0603063A8A
:10418800033703000000000D072D06340331030038
:10419800000000E90C760798039503000000007002
:1041A8001670167016701600000000F3012509C17C
:1041B80001000000004906CC01C901C6014D657324
:1041C800736167652066726F6D20646576696365E3
:1041D8002064726F707065643A206D6573736167EF
:1041E80065206C6172676572207468616E20627503
:1041F800666665722E00466C61736820726561643C
:10420800206E6F7420696D706C0042756666657209
:10421800206F766572666C6F7720707562006172C8
:10422800645F6F646F006172645F646562756700E4
:104238002F61726475696E6F2F636D645F76656C4C
:02424800000074
:2070000055C000006EC000006CC000006AC0000068C0000066C0000064C0000062C0000043
:2070200060C000005EC00000F2C400005AC0000058C0000056C0000054C0000052C00000EE
:2070400050C0000078C000004CC000004AC0000048C0000046C0000044C0000042C00000BE
:2070600040C000003EC000003CC000003AC0000038C0000036C0000034C0000032C0000048
:2070800030C000002EC000002CC000002AC0000028C0000026C0000024C0000022C00000A8
:2070A00020C000001EC000001CC0000011241FBECFEFDAE0DEBFCDBF11E0A0E0B1E0E2E3BC
:2070C000FFE702C005900D92A83AB107D9F711E0A8EAB1E001C01D92AE3BB107E1F78FD30B
:2070E00026C78ECFF89410926F0010928100109285001092840081E085BF15BE47985D9AEB
:20710000289A0C94000008952091B2013091B3012F5F3F4F3093B3012093B201932F37FFA6
:2071200003C08EEF831B982F990F921710F447980895479A08951F920F920FB60F9211246E
:207140002F938F939F93EF93FF9310928500109284008091A8019091A901009741F00197D3
:207160009093A9018093A801892B09F45D9A8091AA019091AB01009741F001979093AB0126
:207180008093AA01892B09F4289AE0E0F0E0859194918F5F9F4F49F08091AC019091AD0151
:2071A00001969093AD018093AC01FF91EF919F918F912F910F900FBE0F901F90189584E0BC
:2071C0008093E9000DC08091E8008B778093E80003C08EB3882351F08091E80082FFF9CFBE
:2071E0008091E80085FFEFCF8091F1000895982F83E08093E9008091E80085FD0DC0809136
:20720000E8008E778093E80003C08EB3882369F08091E80080FFF9CF9093F1005D9884E6CB
:2072200090E09093A9018093A80108954F925F926F927F928F929F92AF92BF92CF92DF921E
:20724000EF92FF920F931F93CF93DF9384E08093E9008091E80082FF57C2289884E690E067
:207260009093AB018093AA01AADF182F853481F48CE49DE19093AD018093AC0107B600FC4B
:20728000FDCFF999FECF81E180935700E89503C0843519F494DF8DE00DC28C34E1F38035F9
:2072A000D1F3843721F484E4A2DF80E003C2813611F489E5FFC18134B1F481DF182F7FDFE3
:2072C00090E0880F991FAA2797FDA095BA2F312F330F20E0442737FD4095542F822B932B68
:2072E000A42BB52BB8C1803711F483E5E3C1833549F4C0E0D1E089917ADF21E0C730D20714
:20730000D1F7D9C1863521F481E371DF80E3D2C1833731F487E86BDF85E969DF8EE1CAC149
:207320008536B9F4E0E0F0E093E085E090935700E89507B600FCFDCF80935700E89507B65D
:2073400000FCFDCFE058FF4FA0E7E030FA0771F7A2CF823739F4E1E0F0E089E08093570024
:207360008491A8C1863439F4E0E0F0E089E08093570084919FC18E3439F4E3E0F0E089E0E5
:2073800080935700849196C1813539F4E2E0F0E089E08093570084918DC1823631F489E521
:2073A00026DF80E024DF80E885C1823419F0873609F0E5C01092AD011092AC0100DF082FE8
:2073C000FEDEF82EFCDE682E8554823008F071C1902F80E0CF2DD0E0C82BD92B10926F00B3
:2073E000173609F04BC081E180935700E895DD24CC24C3943FC0E090AE01F090AF010091CC
:20740000B0011091B101B6E46B16D9F4ED2DF0E0EE29FF29E4918E2FEADEDD2081F082E08D
:2074200090E0A0E0B0E0E80EF91E0A1F1B1FE092AE01F092AF010093B0011093B101DC2470
:2074400018C0D801C701B695A7959795879559D5CEDE82E090E0A0E0B0E0E80EF91E0A1FF2
:207460001B1FE092AE01F092AF010093B0011093B1012197209709F0BECF7DC08090AE01F5
:207480009090AF01A090B001B090B10196E4691609F05DC083E0F40180935700E89507B63E
:2074A00000FCFDCF54C0F6E46F1661F5772031F1E090AE01F090AF010091B0011091B1019E
:2074C0007EDED82ECC24852D90E08C299D29F7010C0140925700E895112482E090E0A0E08B
:2074E000B0E0E80EF91E0A1F1B1FE092AE01F092AF010093B0011093B10102C060DE582E1A
:20750000742423C0E090AE01F090AF010091B0011091B10116950795F794E79450DE682FFA
:20752000C701F7D48091AE019091AF01A091B001B091B1010296A11DB11D8093AE01909349
:20754000AF01A093B001B093B101219704C05524772444244394209709F0A5CF96E46916B6
:2075600041F485E0F40180935700E89507B600FCFDCF8DE03CDE82E080936F009CC0833492
:2075800071F40091AE011091AF0119DE90E021E0F8010C0120935700E89511247CCE8336C8
:2075A00019F5E090AE01F090AF010091B0011091B10105DEF701E16090E021E00C0120938C
:2075C0005700E895112482E090E0A0E0B0E0E80EF91E0A1F1B1FE092AE01F092AF0100936A
:2075E000B0011093B10157CE8D3661F4E091AE01F091AF0185E080935700E89507B600FCF2
:20760000FDCF49CE823551F4E091AE01F091AF0105911491812FEBDD802F4CC0843421F5FE
:20762000E090AE01F090AF010091B0011091B10116950795F794E794C2DD682FC70169D4DE
:207640008091AE019091AF01A091B001B091B1010296A11DB11D8093AE019093AF01A093D8
:20766000B001B093B10117CE843609F5E090AE01F090AF010091B0011091B101D801C70142
:20768000B695A795979587953CD4B1DD82E090E0A0E0B0E0E80EF91E0A1F1B1FE092AE010A
:2076A000F092AF010093B0011093B10104C08B3111F08FE39CDD83E08093E9009091E8002B
:2076C0008091E8008E778093E80095FF04C010C08EB38823C9F08091E80080FFF9CF809193
:2076E000E8008E778093E80003C08EB3882361F08091E80080FFF9CF84E08093E9008091F1
:20770000E8008B778093E800DF91CF911F910F91FF90EF90DF90CF90BF90AF909F908F90AC
:207720007F906F905F904F9008959091B601892F8F77813249F58091B7018032A1F081328A
:2077400019F5913A09F58091E800877F8093E8008DE091E067E070E00BD28091E8008B770B
:207760008093E8000895913279F48091E800877F8093E8008DE091E067E070E05DD2809192
:20778000E8008E778093E800089582E061EC42E0B5D083E061E842E1B1D084E060E842E1EF
:2077A000ADC084B7877F84BF88E10FB6F89480936000109260000FBE20E880E090E00FB63F
:2077C000F89420936100809361000FBE81E085BF92E095BF3F9A209A559AE1E6F0E02083A1
:2077E000108247985D9A289A109289008AEF8093880090936F0083E080938100F0C0409116
:20780000000850910108109201081092000894B714BE88E10FB6F8948093600010926000D5
:207820000FBE292F30E0F901E270F07091FD18C090FF05C0859194918F5F9F4F81F423FFFF
:207840000FC08091090190910A014817590741F0E0E0F0E0859194918F5F9F4F09F042DC64
:20786000A0DF78941092AD011092AC010CC0DEDC36D38091AC019091AD0181549F4110F00D
:207880001092140141DC80911401882381F78091E00081608093E00025DC80E090E0089598
:2078A000FA01923049F0933061F09130F9F485E191E022E130E01EC087E291E02EE330E04D
:2078C00019C0882329F485E691E024E030E012C0813029F489E691E022E230E00BC0823006
:2078E00029F48DE891E028E130E004C080E090E020E030E091838083C90108958093E9004E
:207900008091EB0081608093EB001092ED006093EC004093ED008091EE00881F8827881F62
:2079200008958091B60188238CF403C08EB38823B1F08091E80082FFF9CF8091E8008B772A
:207940008093E80008958EB3882349F08091E80080FFF9CF8091E8008E778093E800089594
:20796000EF92FF920F931F9345D04CD008ED10E0F80180818F77808380818068808380819B
:207980008F7D808319BC1EBA1092B40180EEE82EF12CF70180818B7F8083F8018081816052
:2079A000808380E060E042E0A9DFE1EEF0E080818E7F8083E2EEF0E0808181608083808144
:2079C00088608083F70180818E7F8083F8018081806180831F910F91FF90EF900895E7ED06
:2079E000F0E08081816080838AE482BF81E08093B501B6CFE8EDF0E080818E7F808310921C
:207A0000E20008951092DA001092E10008951F920F920FB60F9211242F933F934F935F93F6
:207A20006F937F938F939F93AF93BF93EF93FF938091DA0080FF1BC08091D80080FF17C0B2
:207A40008091DA008E7F8093DA008091D90080FF0BC080E189BD82E189BD09B400FEFDCF36
:207A600081E08EBB3BD203C019BC1EBA37D28091E10080FF17C08091E20080FF13C0809138
:207A8000E2008E7F8093E2008091E20080618093E2008091D80080628093D80019BC85E049
:207AA0008EBB1CD28091E10084FF2CC08091E20084FF28C080E189BD82E189BD09B400FEC5
:207AC000FDCF8091D8008F7D8093D8008091E1008F7E8093E1008091E2008F7E8093E20012
:207AE0008091E20081608093E2008091B401882331F48091E30087FD02C081E001C084E067
:207B00008EBBECD18091E10083FF21C08091E20083FF1DC08091E100877F8093E10082E06A
:207B20008EBB1092B4018091E1008E7F8093E1008091E2008E7F8093E2008091E2008061E9
:207B40008093E20080E060E042E0D8DEC7D1FF91EF91BF91AF919F918F917F916F915F9130
:207B60004F913F912F910F900FBE0F901F9018959C014091BC015091BD014617570718F49D
:207B8000F90190E044C06115710511F0AB01F8CF8091E8008E778093E80040E050E0F0CF0F
:207BA0008EB3882309F444C0853009F443C08091E80083FF02C081E008958091E80082FD70
:207BC00031C08091E80080FF22C08091F3009091F200782F60E0292F30E0262B372B07C07A
:207BE00081918093F100415050402F5F3F4F4115510519F02830310598F390E02830310566
:207C000009F491E08091E8008E778093E8004115510531F6992321F605C08EB3882341F075
:207C2000853041F08091E80082FFF7CF80E0089582E0089583E008959C016115710529F47C
:207C40008091E8008B778093E800F90126C08EB3882391F1853091F18091E80083FF02C06C
:207C600081E008958091E80082FFF1CF06C08091F10081936150704059F02091F300809191
:207C8000F200322F20E090E0822B932B892B79F78091E8008B778093E80061157105B9F601
:207CA00005C08EB3882341F0853041F08091E80080FFF7CF80E0089582E0089583E00895C2
:207CC0000F931F93DF93CF9300D0CDB7DEB7E6EBF1E08091F100819381E0EE3BF807C9F792
:207CE00024DD8091E80083FFE4C08091B6019091B701953009F46DC0963040F4913081F1A7
:207D0000913070F0933009F0D4C02AC0983009F4A3C0993009F4B2C0963009F0CAC07CC023
:207D2000803809F4C6C0823809F0C3C08091BA0187708093E9008091EB001092E9002091DB
:207D4000E800277F2093E80090E025E0969587952A95E1F781708093F1001092F10087C0D8
:207D6000882319F0823009F0A4C08F71823009F0A0C08091B801882331F52091BA01277097
:207D800009F497C02093E9008091EB0080FF1BC0933021F48091EB00806213C08091EB0018
:207DA00080618093EB0081E090E002C0880F991F2A95E2F78093EA001092EA008091EB00E5
:207DC00088608093EB001092E9008091E800877F51C0882309F06DC01091B8011F770FB79B
:207DE000F8948091E800877F8093E8009ADD8091E80080FFFCCF8091E3008078812B809398
:207E0000E30080688093E300112311F482E001C083E08EBB0FBF4DC08058823008F049C033
:207E20008091B8019091B9016091BA01AE014F5F5F4F36DDBC01009709F43BC08091E8008E
:207E4000877F8093E80089819A8192DE8091E8008B778093E8002DC0803859F58091E800AA
:207E6000877F8093E8008091B4018093F1008091E8008E778093E80054DD1BC08823C9F4CA
:207E80009091B8019230A8F48091E800877F8093E8009093B40145DD8091B401882331F420
:207EA0008091E30087FD02C081E001C084E08EBB6CDC8091E80083FF0AC08091EB0080624E
:207EC0008093EB008091E800877F8093E8000F900F90CF91DF911F910F91089508951F9360
:207EE0008EB3882361F01091E9001092E9008091E80083FF01C0E4DE17701093E9001F916F
:207F00000895F999FECF92BD81BDF89A992780B50895262FF999FECF1FBA92BD81BD20BDBD
:207F20000FB6F894FA9AF99A0FBE01960895F894FFCF4341544552494E4100777700080031
:207F40000000000000080112011001020000084123360001000201000109023E00020100FF
:207F600080320904000001020201000524001001042402040524060001070582030800FF0C
:207F800009040100020A000000070504021000010705830210000104030904220341007216
:207FA000006400750069006E006F0020004C0065006F006E006100720064006F0000001836
:1A7FC00003410072006400750069006E006F0020004C004C004300000000D7
:00000001FF
